{
  "_format": "hh-sol-artifact-1",
  "contractName": "Eip7702SimpleAccount",
  "sourceName": "contracts/Eip7702SimpleAccount.sol",
  "abi": [
    {
      "inputs": [],
      "stateMutability": "nonpayable",
      "type": "constructor"
    },
    {
      "inputs": [],
      "name": "ECDSAInvalidSignature",
      "type": "error"
    },
    {
      "inputs": [
        {
          "internalType": "uint256",
          "name": "length",
          "type": "uint256"
        }
      ],
      "name": "ECDSAInvalidSignatureLength",
      "type": "error"
    },
    {
      "inputs": [
        {
          "internalType": "bytes32",
          "name": "s",
          "type": "bytes32"
        }
      ],
      "name": "ECDSAInvalidSignatureS",
      "type": "error"
    },
    {
      "anonymous": false,
      "inputs": [
        {
          "indexed": true,
          "internalType": "uint256",
          "name": "nonce",
          "type": "uint256"
        }
      ],
      "name": "NonceUsed",
      "type": "event"
    },
    {
      "inputs": [],
      "name": "domainSeparator",
      "outputs": [
        {
          "internalType": "bytes32",
          "name": "",
          "type": "bytes32"
        }
      ],
      "stateMutability": "view",
      "type": "function"
    },
    {
      "inputs": [
        {
          "components": [
            {
              "internalType": "address",
              "name": "target",
              "type": "address"
            },
            {
              "internalType": "uint256",
              "name": "value",
              "type": "uint256"
            },
            {
              "internalType": "bytes",
              "name": "data",
              "type": "bytes"
            }
          ],
          "internalType": "struct Eip7702SimpleAccount.Call[]",
          "name": "calls",
          "type": "tuple[]"
        },
        {
          "internalType": "uint256",
          "name": "_nonce",
          "type": "uint256"
        },
        {
          "internalType": "uint256",
          "name": "validAfter",
          "type": "uint256"
        },
        {
          "internalType": "uint256",
          "name": "validUntil",
          "type": "uint256"
        },
        {
          "internalType": "bytes",
          "name": "signature",
          "type": "bytes"
        }
      ],
      "name": "executeMeta",
      "outputs": [],
      "stateMutability": "nonpayable",
      "type": "function"
    },
    {
      "inputs": [
        {
          "components": [
            {
              "internalType": "address",
              "name": "target",
              "type": "address"
            },
            {
              "internalType": "uint256",
              "name": "value",
              "type": "uint256"
            },
            {
              "internalType": "bytes",
              "name": "data",
              "type": "bytes"
            }
          ],
          "internalType": "struct Eip7702SimpleAccount.Call[]",
          "name": "calls",
          "type": "tuple[]"
        }
      ],
      "name": "hashCalls",
      "outputs": [
        {
          "internalType": "bytes32",
          "name": "",
          "type": "bytes32"
        }
      ],
      "stateMutability": "pure",
      "type": "function"
    },
    {
      "inputs": [
        {
          "internalType": "uint256",
          "name": "_nonce",
          "type": "uint256"
        }
      ],
      "name": "isNonceUsed",
      "outputs": [
        {
          "internalType": "bool",
          "name": "",
          "type": "bool"
        }
      ],
      "stateMutability": "view",
      "type": "function"
    },
    {
      "inputs": [
        {
          "internalType": "bytes32",
          "name": "hash",
          "type": "bytes32"
        },
        {
          "internalType": "bytes",
          "name": "signature",
          "type": "bytes"
        }
      ],
      "name": "isValidSignature",
      "outputs": [
        {
          "internalType": "bytes4",
          "name": "",
          "type": "bytes4"
        }
      ],
      "stateMutability": "view",
      "type": "function"
    },
    {
      "inputs": [
        {
          "internalType": "bytes",
          "name": "data",
          "type": "bytes"
        },
        {
          "internalType": "bytes",
          "name": "signature",
          "type": "bytes"
        }
      ],
      "name": "isValidSignature",
      "outputs": [
        {
          "internalType": "bytes4",
          "name": "",
          "type": "bytes4"
        }
      ],
      "stateMutability": "view",
      "type": "function"
    },
    {
      "inputs": [
        {
          "internalType": "bytes4",
          "name": "interfaceId",
          "type": "bytes4"
        }
      ],
      "name": "supportsInterface",
      "outputs": [
        {
          "internalType": "bool",
          "name": "",
          "type": "bool"
        }
      ],
      "stateMutability": "pure",
      "type": "function"
    },
    {
      "inputs": [
        {
          "internalType": "uint256",
          "name": "",
          "type": "uint256"
        }
      ],
      "name": "usedNonces",
      "outputs": [
        {
          "internalType": "bool",
          "name": "",
          "type": "bool"
        }
      ],
      "stateMutability": "view",
      "type": "function"
    },
    {
      "stateMutability": "payable",
      "type": "receive"
    }
  ],
  "bytecode": "0x6080806040523461001657610b6b908161001c8239f35b600080fdfe6080604081815260049182361015610022575b505050361561002057600080fd5b005b600092833560e01c91826301ffc9a714610541575081631626ba7e1461050157816320c13b0b146104935781635d00bb12146100f15781635df4c239146101215781636717e41c146100f15781637b6d6a18146100b0575063f698da251461008a5780610012565b346100ac57816003193601126100ac576020906100a561064c565b9051908152f35b5080fd5b8284346100ee5760203660031901126100ee5782359067ffffffffffffffff82116100ee57506100e86020936100a5923691016105c7565b90610757565b80fd5b90503461011d57602036600319011261011d578160209360ff9235815280855220541690519015158152f35b8280fd5b90503461011d5760a036600319011261011d5767ffffffffffffffff90803582811161048f5761015490369083016105c7565b8560249492949182356044948535906064359060843581811161048b5761017e9036908b01610594565b93909285885260ff8d602099808b5220541661045457814210610412578042116103d857908c916101af888e610757565b918351928a8401947f19667787bf8e4e28ff931080c268a52496d168906174261eda235b32144164f38652840152876060840152608083015260a082015260a081526101fa816105f8565b51902061020561064c565b918c51918883019361190160f01b855260228401526042830152604282526080820190828210908211176103c6578c5251902061025a926102519261024b9136916108f8565b9061092f565b909291926109fb565b306001600160a01b039091160361039557808952888352878920805460ff191660011790557f1be5cb2f29a4876ca6fdf1177257bc6f2671bc7e036db0815016a6b766ecd1158980a2875b8181106102b0578880f35b88806102c56102c084868c61071f565b610895565b8a8a6102ec6102e387898b6102db83838861071f565b01359461071f565b838101906108a9565b8093519384928337810185815203925af13d1561038d573d9061030e826108dc565b9161031b8b51938461062a565b82523d8b8684013e5b156103385750610333906106fa565b6102a5565b8587868c8780958e5196879562461bcd60e51b875286015280518094860152825b84811061037757505050828201840152601f01601f19168101030190fd5b8181018301518882018801528795508201610359565b606090610324565b875162461bcd60e51b8152808701849052600d818601526c626164207369676e617475726560981b81870152606490fd5b634e487b7160e01b8e5260418b52888efd5b508b5162461bcd60e51b8152808b018890526015818a015274185d5d1a1bdc9a5e985d1a5bdb88195e1c1a5c9959605a1b818b0152606490fd5b508b5162461bcd60e51b8152808b01889052601b818a01527f617574686f72697a6174696f6e206e6f74207965742076616c69640000000000818b0152606490fd5b508b5162461bcd60e51b8152808b018890526012818a0152711b9bdb98d948185b1c9958591e481d5cd95960721b818b0152606490fd5b8680fd5b8480fd5b8284346100ee57816003193601126100ee5767ffffffffffffffff92803584811161011d576104c59036908301610594565b9490926024359182116100ee5750916104e7602095926104ef94369101610594565b929091610ad1565b90516001600160e01b03199091168152f35b8284346100ee57816003193601126100ee576024359067ffffffffffffffff82116100ee575060209261053a6104ef9236908301610594565b9135610a80565b84913461011d57602036600319011261011d573563ffffffff60e01b811680910361011d57602092506301ffc9a760e01b8114908115610583575b5015158152f35b630b135d3f60e11b1490508361057c565b9181601f840112156105c25782359167ffffffffffffffff83116105c257602083818601950101116105c257565b600080fd5b9181601f840112156105c25782359167ffffffffffffffff83116105c2576020808501948460051b0101116105c257565b60c0810190811067ffffffffffffffff82111761061457604052565b634e487b7160e01b600052604160045260246000fd5b90601f8019910116810190811067ffffffffffffffff82111761061457604052565b60405160208101907f8b73c3c69bb8fe3d512ecc4cf759cc79239f7b179b0ffacaa9a75d522b39400f82527f0617916c66cf2f8bef8f2360f69f42e7fb36391164667ba437bda5f2f137968b60408201527fc89efdaa54c0f20c7adf612882df0950f5a951637e0307cdcb4c672f298b8bc660608201524660808201523060a082015260a081526106dc816105f8565b51902090565b67ffffffffffffffff81116106145760051b60200190565b60001981146107095760010190565b634e487b7160e01b600052601160045260246000fd5b91908110156107415760051b81013590605e19813603018212156105c2570190565b634e487b7160e01b600052603260045260246000fd5b610760826106e2565b91604061076f8151948561062a565b81845261077b826106e2565b60209385850193601f199392840136863760005b8181106107da5750505051838194820180965190949160005b8281106107c357505050506106dc920390810183528261062a565b8351875295810195879450928101926001016107a8565b6107e881838598979861071f565b6107f181610895565b90610808610801878301836108a9565b36916108f8565b89815191012089875192818401947f84fa2cf05cd88e992eae77e851af68a4ee278dcff6ef504e487a55b3baadfbe5865260018060a01b0316898501520135606083015260809081830152815260a0810181811067ffffffffffffffff8211176106145786525190209088518110156107415761088d91888260051b8b0101526106fa565b94939461078f565b356001600160a01b03811681036105c25790565b903590601e19813603018212156105c2570180359067ffffffffffffffff82116105c2576020019181360383136105c257565b67ffffffffffffffff811161061457601f01601f191660200190565b929192610904826108dc565b91610912604051938461062a565b8294818452818301116105c2578281602093846000960137010152565b81519190604183036109605761095992506020820151906060604084015193015160001a9061096b565b9192909190565b505060009160029190565b91907f7fffffffffffffffffffffffffffffff5d576e7357a4501ddfe92f46681b20a084116109ef57926020929160ff608095604051948552168484015260408301526060820152600092839182805260015afa156109e35780516001600160a01b038116156109da57918190565b50809160019190565b604051903d90823e3d90fd5b50505060009160039190565b6004811015610a6a5780610a0d575050565b60018103610a275760405163f645eedf60e01b8152600490fd5b60028103610a485760405163fce698f760e01b815260048101839052602490fd5b600314610a525750565b602490604051906335e2f38360e21b82526004820152fd5b634e487b7160e01b600052602160045260246000fd5b9061024b90610a909336916108f8565b506004811015610a6a57159081610abe575b50610ab3576001600160e01b031990565b630b135d3f60e11b90565b6001600160a01b03163014905038610aa2565b91610ae5610af4949361024b9336916108f8565b602081519101209236916108f8565b506004811015610a6a57159081610b22575b50610b17576001600160e01b031990565b6320c13b0b60e01b90565b6001600160a01b03163014905038610b0656fea26469706673582212204bcc5204fe45a1d40760007c417d38e77e72eee07beae66a428170f45822cb2c64736f6c63430008140033",
  "linkReferences": {},
  "deployedLinkReferences": {}
}