{
  "_format": "hh-sol-artifact-1",
  "contractName": "LitActionRegistry",
  "sourceName": "contracts/LitActionRegistry.sol",
  "abi": [
    {
      "inputs": [
        {
          "internalType": "address",
          "name": "initialOwner",
          "type": "address"
        }
      ],
      "stateMutability": "nonpayable",
      "type": "constructor"
    },
    {
      "inputs": [
        {
          "internalType": "address",
          "name": "owner",
          "type": "address"
        }
      ],
      "name": "OwnableInvalidOwner",
      "type": "error"
    },
    {
      "inputs": [
        {
          "internalType": "address",
          "name": "account",
          "type": "address"
        }
      ],
      "name": "OwnableUnauthorizedAccount",
      "type": "error"
    },
    {
      "anonymous": false,
      "inputs": [
        {
          "indexed": false,
          "internalType": "string",
          "name": "oldCID",
          "type": "string"
        },
        {
          "indexed": false,
          "internalType": "string",
          "name": "newCID",
          "type": "string"
        }
      ],
      "name": "ChildLitActionCIDUpdated",
      "type": "event"
    },
    {
      "anonymous": false,
      "inputs": [
        {
          "indexed": true,
          "internalType": "address",
          "name": "previousOwner",
          "type": "address"
        },
        {
          "indexed": true,
          "internalType": "address",
          "name": "newOwner",
          "type": "address"
        }
      ],
      "name": "OwnershipTransferred",
      "type": "event"
    },
    {
      "inputs": [],
      "name": "childLitActionCID",
      "outputs": [
        {
          "internalType": "string",
          "name": "",
          "type": "string"
        }
      ],
      "stateMutability": "view",
      "type": "function"
    },
    {
      "inputs": [],
      "name": "getChildIPFSCID",
      "outputs": [
        {
          "internalType": "string",
          "name": "",
          "type": "string"
        }
      ],
      "stateMutability": "view",
      "type": "function"
    },
    {
      "inputs": [],
      "name": "getChildLitActionCID",
      "outputs": [
        {
          "internalType": "string",
          "name": "",
          "type": "string"
        }
      ],
      "stateMutability": "view",
      "type": "function"
    },
    {
      "inputs": [],
      "name": "owner",
      "outputs": [
        {
          "internalType": "address",
          "name": "",
          "type": "address"
        }
      ],
      "stateMutability": "view",
      "type": "function"
    },
    {
      "inputs": [],
      "name": "renounceOwnership",
      "outputs": [],
      "stateMutability": "nonpayable",
      "type": "function"
    },
    {
      "inputs": [
        {
          "internalType": "string",
          "name": "newCID",
          "type": "string"
        }
      ],
      "name": "setChildLitActionCID",
      "outputs": [],
      "stateMutability": "nonpayable",
      "type": "function"
    },
    {
      "inputs": [
        {
          "internalType": "address",
          "name": "newOwner",
          "type": "address"
        }
      ],
      "name": "transferOwnership",
      "outputs": [],
      "stateMutability": "nonpayable",
      "type": "function"
    }
  ],
  "bytecode": "0x6080346100bb57601f6107d738819003918201601f19168301916001600160401b038311848410176100c0578084926020946040528339810103126100bb57516001600160a01b0390818116908190036100bb5780156100a257600080546001600160a01b03198116831782556040519316907f8be0079c531659141344cd1fd0a4f28419497f9722a3daafe3b4186f6b6457e09080a361070090816100d78239f35b604051631e4fbdf760e01b815260006004820152602490fd5b600080fd5b634e487b7160e01b600052604160045260246000fdfe60406080815260048036101561001457600080fd5b600091823560e01c8063223b0a9b1461041757806342e7f44e146100fd5780634e546bd11461018b578063715018a61461012e5780638da5cb5b14610102578063c3f589de146100fd5763f2fde38b1461006d57600080fd5b346100f95760203660031901126100f9576001600160a01b038235818116939192908490036100f55761009e61067e565b83156100df57505082546001600160a01b0319811683178455167f8be0079c531659141344cd1fd0a4f28419497f9722a3daafe3b4186f6b6457e08380a380f35b51631e4fbdf760e01b8152908101849052602490fd5b8480fd5b8280fd5b6105a7565b83823461012a578160031936011261012a57905490516001600160a01b039091168152602090f35b5080fd5b833461018857806003193601126101885761014761067e565b80546001600160a01b03198116825581906001600160a01b03167f8be0079c531659141344cd1fd0a4f28419497f9722a3daafe3b4186f6b6457e08280a380f35b80fd5b5091903461012a57602092836003193601126100f95767ffffffffffffffff82358181116100f557366023820112156100f557808401359180831161040457835192601f19926101e2601f830185168a0186610486565b81855236602483830101116104005781889260248b9301838801378501015261020961067e565b8251156103b1576102186104be565b94835191821161039e5750600191610230835461044c565b601f811161034c575b508790601f83116001146102be575091816102ad94928899947f6044ce709730a788d06eb07d22b9177941c23ceecefb7a3c56d9dcf69fd4e86f99916102b3575b50600019600383901b1c191690821b1790555b6102a08451958587968752860190610567565b9184830390850152610567565b0390a180f35b90508301513861027a565b8216908388526000805160206106ab83398151915291885b81811061033757509284927f6044ce709730a788d06eb07d22b9177941c23ceecefb7a3c56d9dcf69fd4e86f999a9592826102ad98961061031e575b5050811b01905561028d565b85015160001960f88460031b161c191690553880610312565b86830151845592850192918a01918a016102d6565b8388526000805160206106ab833981519152601f840160051c8101918a8510610394575b601f0160051c019084905b828110610389575050610239565b89815501849061037b565b9091508190610370565b634e487b7160e01b875260419052602486fd5b835162461bcd60e51b81528086018890526024808201527f4368696c64204c697420416374696f6e204349442063616e6e6f7420626520656044820152636d70747960e01b6064820152608490fd5b8780fd5b634e487b7160e01b865260418552602486fd5b83823461012a578160031936011261012a57610448906104356104be565b9051918291602083526020830190610567565b0390f35b90600182811c9216801561047c575b602083101461046657565b634e487b7160e01b600052602260045260246000fd5b91607f169161045b565b90601f8019910116810190811067ffffffffffffffff8211176104a857604052565b634e487b7160e01b600052604160045260246000fd5b604051906000826001918254926104d48461044c565b8084529381811690811561054557506001146104fa575b506104f892500383610486565b565b600081815291506000805160206106ab8339815191525b84831061052a57506104f89350508101602001386104eb565b81935090816020925483858a01015201910190918592610511565b9050602092506104f894915060ff191682840152151560051b820101386104eb565b919082519283825260005b848110610593575050826000602080949584010152601f8019910116010190565b602081830181015184830182015201610572565b346106795760008060031936011261018857604051908060018054916105cc8361044c565b8086529282811690811561064f5750600114610607575b610448856105f381870382610486565b604051918291602083526020830190610567565b92508083526000805160206106ab8339815191525b8284106106375750505081016020016105f3826104486105e3565b8054602085870181019190915290930192810161061c565b869550610448969350602092506105f394915060ff191682840152151560051b82010192936105e3565b600080fd5b6000546001600160a01b0316330361069257565b60405163118cdaa760e01b8152336004820152602490fdfeb10e2d527612073b26eecdfd717e6a320cf44b4afac2b0732d9fcbe2b7fa0cf6a2646970667358221220480aa32a2929c4e086f1b5b9574d5af13423bccf452c4216553046f31b0a774564736f6c63430008140033",
  "linkReferences": {},
  "deployedLinkReferences": {}
}