{
  "_format": "hh-sol-artifact-1",
  "contractName": "MockERC20",
  "sourceName": "contracts/mocks/MockERC20.sol",
  "abi": [
    {
      "inputs": [],
      "stateMutability": "nonpayable",
      "type": "constructor"
    },
    {
      "inputs": [
        {
          "internalType": "address",
          "name": "spender",
          "type": "address"
        },
        {
          "internalType": "uint256",
          "name": "allowance",
          "type": "uint256"
        },
        {
          "internalType": "uint256",
          "name": "needed",
          "type": "uint256"
        }
      ],
      "name": "ERC20InsufficientAllowance",
      "type": "error"
    },
    {
      "inputs": [
        {
          "internalType": "address",
          "name": "sender",
          "type": "address"
        },
        {
          "internalType": "uint256",
          "name": "balance",
          "type": "uint256"
        },
        {
          "internalType": "uint256",
          "name": "needed",
          "type": "uint256"
        }
      ],
      "name": "ERC20InsufficientBalance",
      "type": "error"
    },
    {
      "inputs": [
        {
          "internalType": "address",
          "name": "approver",
          "type": "address"
        }
      ],
      "name": "ERC20InvalidApprover",
      "type": "error"
    },
    {
      "inputs": [
        {
          "internalType": "address",
          "name": "receiver",
          "type": "address"
        }
      ],
      "name": "ERC20InvalidReceiver",
      "type": "error"
    },
    {
      "inputs": [
        {
          "internalType": "address",
          "name": "sender",
          "type": "address"
        }
      ],
      "name": "ERC20InvalidSender",
      "type": "error"
    },
    {
      "inputs": [
        {
          "internalType": "address",
          "name": "spender",
          "type": "address"
        }
      ],
      "name": "ERC20InvalidSpender",
      "type": "error"
    },
    {
      "anonymous": false,
      "inputs": [
        {
          "indexed": true,
          "internalType": "address",
          "name": "owner",
          "type": "address"
        },
        {
          "indexed": true,
          "internalType": "address",
          "name": "spender",
          "type": "address"
        },
        {
          "indexed": false,
          "internalType": "uint256",
          "name": "value",
          "type": "uint256"
        }
      ],
      "name": "Approval",
      "type": "event"
    },
    {
      "anonymous": false,
      "inputs": [
        {
          "indexed": true,
          "internalType": "address",
          "name": "from",
          "type": "address"
        },
        {
          "indexed": true,
          "internalType": "address",
          "name": "to",
          "type": "address"
        },
        {
          "indexed": false,
          "internalType": "uint256",
          "name": "value",
          "type": "uint256"
        }
      ],
      "name": "Transfer",
      "type": "event"
    },
    {
      "inputs": [
        {
          "internalType": "address",
          "name": "owner",
          "type": "address"
        },
        {
          "internalType": "address",
          "name": "spender",
          "type": "address"
        }
      ],
      "name": "allowance",
      "outputs": [
        {
          "internalType": "uint256",
          "name": "",
          "type": "uint256"
        }
      ],
      "stateMutability": "view",
      "type": "function"
    },
    {
      "inputs": [
        {
          "internalType": "address",
          "name": "spender",
          "type": "address"
        },
        {
          "internalType": "uint256",
          "name": "value",
          "type": "uint256"
        }
      ],
      "name": "approve",
      "outputs": [
        {
          "internalType": "bool",
          "name": "",
          "type": "bool"
        }
      ],
      "stateMutability": "nonpayable",
      "type": "function"
    },
    {
      "inputs": [
        {
          "internalType": "address",
          "name": "account",
          "type": "address"
        }
      ],
      "name": "balanceOf",
      "outputs": [
        {
          "internalType": "uint256",
          "name": "",
          "type": "uint256"
        }
      ],
      "stateMutability": "view",
      "type": "function"
    },
    {
      "inputs": [],
      "name": "decimals",
      "outputs": [
        {
          "internalType": "uint8",
          "name": "",
          "type": "uint8"
        }
      ],
      "stateMutability": "view",
      "type": "function"
    },
    {
      "inputs": [
        {
          "internalType": "address",
          "name": "to",
          "type": "address"
        },
        {
          "internalType": "uint256",
          "name": "amount",
          "type": "uint256"
        }
      ],
      "name": "mint",
      "outputs": [],
      "stateMutability": "nonpayable",
      "type": "function"
    },
    {
      "inputs": [],
      "name": "name",
      "outputs": [
        {
          "internalType": "string",
          "name": "",
          "type": "string"
        }
      ],
      "stateMutability": "view",
      "type": "function"
    },
    {
      "inputs": [
        {
          "internalType": "address",
          "name": "from",
          "type": "address"
        },
        {
          "internalType": "address",
          "name": "to",
          "type": "address"
        },
        {
          "internalType": "uint256",
          "name": "value",
          "type": "uint256"
        },
        {
          "internalType": "uint256",
          "name": "validAfter",
          "type": "uint256"
        },
        {
          "internalType": "uint256",
          "name": "validBefore",
          "type": "uint256"
        },
        {
          "internalType": "bytes32",
          "name": "nonce",
          "type": "bytes32"
        },
        {
          "internalType": "uint8",
          "name": "v",
          "type": "uint8"
        },
        {
          "internalType": "bytes32",
          "name": "r",
          "type": "bytes32"
        },
        {
          "internalType": "bytes32",
          "name": "s",
          "type": "bytes32"
        }
      ],
      "name": "receiveWithAuthorization",
      "outputs": [],
      "stateMutability": "nonpayable",
      "type": "function"
    },
    {
      "inputs": [],
      "name": "symbol",
      "outputs": [
        {
          "internalType": "string",
          "name": "",
          "type": "string"
        }
      ],
      "stateMutability": "view",
      "type": "function"
    },
    {
      "inputs": [],
      "name": "totalSupply",
      "outputs": [
        {
          "internalType": "uint256",
          "name": "",
          "type": "uint256"
        }
      ],
      "stateMutability": "view",
      "type": "function"
    },
    {
      "inputs": [
        {
          "internalType": "address",
          "name": "to",
          "type": "address"
        },
        {
          "internalType": "uint256",
          "name": "value",
          "type": "uint256"
        }
      ],
      "name": "transfer",
      "outputs": [
        {
          "internalType": "bool",
          "name": "",
          "type": "bool"
        }
      ],
      "stateMutability": "nonpayable",
      "type": "function"
    },
    {
      "inputs": [
        {
          "internalType": "address",
          "name": "from",
          "type": "address"
        },
        {
          "internalType": "address",
          "name": "to",
          "type": "address"
        },
        {
          "internalType": "uint256",
          "name": "value",
          "type": "uint256"
        }
      ],
      "name": "transferFrom",
      "outputs": [
        {
          "internalType": "bool",
          "name": "",
          "type": "bool"
        }
      ],
      "stateMutability": "nonpayable",
      "type": "function"
    }
  ],
  "bytecode": "0x6080346200039a576040906001600160401b0390808301828111828210176200029a57835260098152602090684d6f636b205553444360b81b82820152835192848401848110828211176200029a57855260058452644d5553444360d81b8385015281518181116200029a576003908154906001948583811c931680156200038f575b8784101462000379578190601f9384811162000323575b508790848311600114620002bc57600092620002b0575b505060001982851b1c191690851b1782555b85519283116200029a5760049586548581811c911680156200028f575b878210146200027a578281116200022f575b5085918411600114620001c457938394918492600095620001b8575b50501b92600019911b1c19161782555b3315620001a15760025469d3c21bcecceda1000000928382018092116200018c57506000917fddf252ad1be2c89b69c2b068fc378daa952ba7f163c4a11628f55a4df523b3ef9160025533835282815284832084815401905584519384523393a35161079f9081620003a08239f35b601190634e487b7160e01b6000525260246000fd5b506000602492519163ec442f0560e01b8352820152fd5b0151935038806200010d565b9190601f198416928760005284876000209460005b8989838310620002175750505010620001fc575b50505050811b0182556200011d565b01519060f884600019921b161c1916905538808080620001ed565b868601518955909701969485019488935001620001d9565b87600052866000208380870160051c82019289881062000270575b0160051c019086905b82811062000263575050620000f1565b6000815501869062000253565b925081926200024a565b602288634e487b7160e01b6000525260246000fd5b90607f1690620000df565b634e487b7160e01b600052604160045260246000fd5b015190503880620000b0565b90879350601f1983169186600052896000209260005b8b8282106200030c5750508411620002f3575b505050811b018255620000c2565b015160001983871b60f8161c19169055388080620002e5565b8385015186558b97909501949384019301620002d2565b90915084600052876000208480850160051c8201928a86106200036f575b918991869594930160051c01915b8281106200035f57505062000099565b600081558594508991016200034f565b9250819262000341565b634e487b7160e01b600052602260045260246000fd5b92607f169262000082565b600080fdfe60806040908082526004918236101561001757600080fd5b600092833560e01c92836306fdde031461053957508263095ea7b31461048e57826318160ddd1461046f57826323b872dd1461037d578263313ce5671461036157826340c10f19146102ba57826370a082311461028357826395d89b411461016457508163a9059cbb14610133578163dd62ed3e146100e6575063ef55bec6146100a057600080fd5b346100e3576101203660031901126100e3576100ba61065a565b6100c2610675565b9060c43560ff8116036100df576100dc916044359161068b565b80f35b8280fd5b80fd5b90503461012f578060031936011261012f578060209261010461065a565b61010c610675565b6001600160a01b0391821683526001865283832091168252845220549051908152f35b5080fd5b90503461012f578060031936011261012f5760209061015d61015361065a565b602435903361068b565b5160018152f35b83823461012f578160031936011261012f57805190828454600181811c90808316928315610279575b60209384841081146102665783885290811561024a57506001146101f5575b505050829003601f01601f191682019267ffffffffffffffff8411838510176101e257508291826101de925282610611565b0390f35b634e487b7160e01b815260418552602490fd5b8787529192508591837f8a35acfbc15ff81a39ae7d344fd709f28e8600b4aa8c65c6b64bfe7fe36bd19b5b83851061023657505050508301018580806101ac565b805488860183015293019284908201610220565b60ff1916878501525050151560051b84010190508580806101ac565b634e487b7160e01b895260228a52602489fd5b91607f169161018d565b83823461012f57602036600319011261012f5760209181906001600160a01b036102ab61065a565b16815280845220549051908152f35b9150346100df57806003193601126100df576102d461065a565b6001600160a01b0316916024359190831561034c5760025490838201809211610339575084927fddf252ad1be2c89b69c2b068fc378daa952ba7f163c4a11628f55a4df523b3ef9260209260025585855284835280852082815401905551908152a380f35b634e487b7160e01b865260119052602485fd5b84602492519163ec442f0560e01b8352820152fd5b83823461012f578160031936011261012f576020905160128152f35b83346100e35760603660031901126100e35761039761065a565b61039f610675565b916044359360018060a01b0383168083526001602052868320338452602052868320549160001983036103db575b60208861015d89898961068b565b86831061044357811561042c5733156104155750825260016020908152868320338452815291869020908590039055829061015d876103cd565b8751634a1406b160e11b8152908101849052602490fd5b875163e602df0560e01b8152908101849052602490fd5b8751637dc7a0d960e11b8152339181019182526020820193909352604081018790528291506060010390fd5b83823461012f578160031936011261012f576020906002549051908152f35b909150346100df57816003193601126100df576104a961065a565b602435903315610522576001600160a01b031691821561050b57508083602095338152600187528181208582528752205582519081527f8c5be1e5ebec7d5bd14f71427d1e84f3dd0314c0f7b2291e5b200ac8c7c3b925843392a35160018152f35b8351634a1406b160e11b8152908101859052602490fd5b835163e602df0560e01b8152808401869052602490fd5b849192346100df57826003193601126100df5782600354600181811c90808316928315610607575b60209384841081146102665783885290811561024a57506001146105b157505050829003601f01601f191682019267ffffffffffffffff8411838510176101e257508291826101de925282610611565b600387529192508591837fc2575a0e9e593c00f959f8c92f12db2869c3395a3b0502d05e2516446f71f85b5b8385106105f357505050508301018580806101ac565b8054888601830152930192849082016105dd565b91607f1691610561565b6020808252825181830181905290939260005b82811061064657505060409293506000838284010152601f8019910116010190565b818101860151848201604001528501610624565b600435906001600160a01b038216820361067057565b600080fd5b602435906001600160a01b038216820361067057565b916001600160a01b0380841692831561075057169283156107375760009083825281602052604082205490838210610705575091604082827fddf252ad1be2c89b69c2b068fc378daa952ba7f163c4a11628f55a4df523b3ef958760209652828652038282205586815220818154019055604051908152a3565b60405163391434e360e21b81526001600160a01b03919091166004820152602481019190915260448101839052606490fd5b60405163ec442f0560e01b815260006004820152602490fd5b604051634b637e8f60e11b815260006004820152602490fdfea2646970667358221220bb06dad9f245364a47c2cb49fce76352fce1584dd2b8a9f4f01786d1ffee18ff64736f6c63430008140033",
  "linkReferences": {},
  "deployedLinkReferences": {}
}