{
  "_format": "hh-sol-artifact-1",
  "contractName": "AcrossWithAuthorization",
  "sourceName": "contracts/AcrossWithAuthorization.sol",
  "abi": [
    {
      "inputs": [
        {
          "internalType": "address",
          "name": "_across",
          "type": "address"
        },
        {
          "internalType": "address",
          "name": "_owner",
          "type": "address"
        }
      ],
      "stateMutability": "nonpayable",
      "type": "constructor"
    },
    {
      "inputs": [],
      "name": "ECDSAInvalidSignature",
      "type": "error"
    },
    {
      "inputs": [
        {
          "internalType": "uint256",
          "name": "length",
          "type": "uint256"
        }
      ],
      "name": "ECDSAInvalidSignatureLength",
      "type": "error"
    },
    {
      "inputs": [
        {
          "internalType": "bytes32",
          "name": "s",
          "type": "bytes32"
        }
      ],
      "name": "ECDSAInvalidSignatureS",
      "type": "error"
    },
    {
      "anonymous": false,
      "inputs": [
        {
          "indexed": true,
          "internalType": "address",
          "name": "depositor",
          "type": "address"
        },
        {
          "indexed": true,
          "internalType": "bytes32",
          "name": "nonce",
          "type": "bytes32"
        }
      ],
      "name": "Deposited",
      "type": "event"
    },
    {
      "inputs": [],
      "name": "DOMAIN_SEPARATOR",
      "outputs": [
        {
          "internalType": "bytes32",
          "name": "",
          "type": "bytes32"
        }
      ],
      "stateMutability": "view",
      "type": "function"
    },
    {
      "inputs": [],
      "name": "across",
      "outputs": [
        {
          "internalType": "address",
          "name": "",
          "type": "address"
        }
      ],
      "stateMutability": "view",
      "type": "function"
    },
    {
      "inputs": [
        {
          "internalType": "uint256",
          "name": "v",
          "type": "uint256"
        },
        {
          "internalType": "bytes32",
          "name": "r",
          "type": "bytes32"
        },
        {
          "internalType": "bytes32",
          "name": "s",
          "type": "bytes32"
        },
        {
          "internalType": "uint256",
          "name": "v2",
          "type": "uint256"
        },
        {
          "internalType": "bytes32",
          "name": "r2",
          "type": "bytes32"
        },
        {
          "internalType": "bytes32",
          "name": "s2",
          "type": "bytes32"
        },
        {
          "internalType": "uint256",
          "name": "validAfter",
          "type": "uint256"
        },
        {
          "internalType": "uint256",
          "name": "validBefore",
          "type": "uint256"
        },
        {
          "internalType": "bytes32",
          "name": "nonce",
          "type": "bytes32"
        },
        {
          "internalType": "address",
          "name": "depositor",
          "type": "address"
        },
        {
          "internalType": "address",
          "name": "recipient",
          "type": "address"
        },
        {
          "internalType": "address",
          "name": "inputToken",
          "type": "address"
        },
        {
          "internalType": "address",
          "name": "outputToken",
          "type": "address"
        },
        {
          "internalType": "uint256",
          "name": "inputAmount",
          "type": "uint256"
        },
        {
          "internalType": "uint256",
          "name": "outputAmount",
          "type": "uint256"
        },
        {
          "internalType": "uint256",
          "name": "feeAmount",
          "type": "uint256"
        },
        {
          "internalType": "uint256",
          "name": "destinationChainId",
          "type": "uint256"
        },
        {
          "internalType": "address",
          "name": "exclusiveRelayer",
          "type": "address"
        },
        {
          "internalType": "uint32",
          "name": "quoteTimestamp",
          "type": "uint32"
        },
        {
          "internalType": "uint32",
          "name": "fillDeadline",
          "type": "uint32"
        },
        {
          "internalType": "uint32",
          "name": "exclusivityDeadline",
          "type": "uint32"
        },
        {
          "internalType": "bytes",
          "name": "message",
          "type": "bytes"
        }
      ],
      "name": "depositV3WithAuthorization",
      "outputs": [],
      "stateMutability": "nonpayable",
      "type": "function"
    },
    {
      "inputs": [],
      "name": "owner",
      "outputs": [
        {
          "internalType": "address",
          "name": "",
          "type": "address"
        }
      ],
      "stateMutability": "view",
      "type": "function"
    },
    {
      "inputs": [
        {
          "internalType": "address",
          "name": "token",
          "type": "address"
        },
        {
          "internalType": "uint256",
          "name": "amount",
          "type": "uint256"
        }
      ],
      "name": "withdrawFees",
      "outputs": [],
      "stateMutability": "nonpayable",
      "type": "function"
    }
  ],
  "bytecode": "0x60c03461009557601f610b8838819003918201601f19168301916001600160401b0383118484101761009a57808492604094855283398101031261009557610052602061004b836100b0565b92016100b0565b9060a052608052604051610ac390816100c5823960805181818160810152610171015260a05181818161050f0152818161056a0152818161066b01526107d40152f35b600080fd5b634e487b7160e01b600052604160045260246000fd5b51906001600160a01b03821682036100955756fe608080604052600436101561001357600080fd5b600090813560e01c908163292c1d92146107c0575080633644e5151461079d5780633aaf1da0146101a05780638da5cb5b1461015b5763ad3b1b471461005857600080fd5b34610158576040366003190112610158576001600160a01b0360043581811690819003610153577f000000000000000000000000000000000000000000000000000000000000000091821633036101215760405163a9059cbb60e01b81526001600160a01b0392909216600483015260248035908301526020908290604490829086905af18015610116576100eb575080f35b61010b9060203d811161010f575b6101038183610849565b810190610960565b5080f35b503d6100f9565b6040513d84823e3d90fd5b60405162461bcd60e51b815260206004820152600a60248201526927b7363c9037bbb732b960b11b6044820152606490fd5b600080fd5b80fd5b50346101585780600319360112610158576040517f00000000000000000000000000000000000000000000000000000000000000006001600160a01b03168152602090f35b5034610158576102c03660031901126101585761012435906001600160a01b03821682036101585761014435916001600160a01b03831683036106e35761016435926001600160a01b03841684036107995761018435936001600160a01b03851685036107955761022435946001600160a01b038616860361079157610244359063ffffffff92838316830361078d576102643590848216820361078957610284359385851685036106e75767ffffffffffffffff6102a435116106e7573660236102a4350112156106e75767ffffffffffffffff6102a43560040135116106e7573660246102a435600401356102a4350101116106e7576040516102b660046102a4350135601f01601f191660200182610849565b6102a435600481013580835290602401602083013760206102a43560040135820181018b9052815191810191909120604080517f9e083da3706b9934d8045dc0c29468984b5edc70777cc6bed8696637995f5ed09381019390935260c4359083015260e43560608301526101043560808301526001600160a01b038a811660a084015289811660c084015284811660e08401528681166101008401526101a4356101208401526101c4356101408401526101e435610160840152610204356101808401528c166101a08301528783166101c08301528488166101e0830152868816610200830152610220808301919091528152610240810180821167ffffffffffffffff90911117610775576102408101604052602081519101206103d961086b565b906040519161190160f01b6020840152602283015260428201526042815280608081011067ffffffffffffffff6080830111176107755761043981608061044293016040526020815191012060a435906084359060ff6064351690610978565b90929192610a08565b6001600160a01b0389811691160361073f576101e4356101a435016101a4351161072b576001600160a01b0382163b156106e757604051996377aadf6360e11b8b5260018060a01b03891660048c01523060248c01526101e4356101a4350160448c015260c43560648c015260e43560848c01526101043560a48c015260ff6004351660c48c015260243560e48c01526044356101048c0152898b610124818360018060a01b0388165af1801561070a57610715575b60405163095ea7b360e01b81526001600160a01b037f00000000000000000000000000000000000000000000000000000000000000001660048201526101a4356024820152999a5097988a9890602081806044810103818d6001600160a01b0389165af1801561070a576106eb575b507f00000000000000000000000000000000000000000000000000000000000000006001600160a01b03163b156106e757604051633dc9c91960e11b81526001600160a01b038b8116600480840191909152998116602480840191909152948116604483015295861660648201526101a4803560848301526101c43560a48301526102043560c48301529190951660e4860152908616610104850152918516610124840152929093166101448201526101806101648201526102a435938401356101848201819052909390929101908301376101a46102a43560040135828101820184905283918391601f19601f9091011682018290030181836001600160a01b037f0000000000000000000000000000000000000000000000000000000000000000165af18015610116576106cf575b505061010435906001600160a01b03167f07c395f9699f5c4d4e90df65ab0ea5d135089f597219b61c81445b8785c75b588380a380f35b6106d890610803565b6106e3578138610698565b5080fd5b8880fd5b6107039060203d60201161010f576101038183610849565b5038610567565b6040513d8c823e3d90fd5b9798909961072290610803565b979689906104f8565b634e487b7160e01b89526011600452602489fd5b60405162461bcd60e51b815260206004820152600e60248201526d24b73b30b634b21039b4b3b732b960911b6044820152606490fd5b634e487b7160e01b8a52604160045260248afd5b8780fd5b8680fd5b8480fd5b8380fd5b8280fd5b503461015857806003193601126101585760206107b861086b565b604051908152f35b9050346106e357816003193601126106e3577f00000000000000000000000000000000000000000000000000000000000000006001600160a01b03168152602090f35b67ffffffffffffffff811161081757604052565b634e487b7160e01b600052604160045260246000fd5b6040810190811067ffffffffffffffff82111761081757604052565b90601f8019910116810190811067ffffffffffffffff82111761081757604052565b7f4163726f737357697468417574686f72697a6174696f6e000000000000000000602060405161089a8161082d565b601781520152603160f81b60206040516108b38161082d565b60018152015260405160208101907f8b73c3c69bb8fe3d512ecc4cf759cc79239f7b179b0ffacaa9a75d522b39400f82527f1ebcbe7a0999f3d17724384372eb5ab92c9d2107035426aa52c0fa5afbf32fce60408201527fc89efdaa54c0f20c7adf612882df0950f5a951637e0307cdcb4c672f298b8bc660608201524660808201523060a082015260a0815260c0810181811067ffffffffffffffff8211176108175760405251902090565b90816020910312610153575180151581036101535790565b91907f7fffffffffffffffffffffffffffffff5d576e7357a4501ddfe92f46681b20a084116109fc57926020929160ff608095604051948552168484015260408301526060820152600092839182805260015afa156109f05780516001600160a01b038116156109e757918190565b50809160019190565b604051903d90823e3d90fd5b50505060009160039190565b6004811015610a775780610a1a575050565b60018103610a345760405163f645eedf60e01b8152600490fd5b60028103610a555760405163fce698f760e01b815260048101839052602490fd5b600314610a5f5750565b602490604051906335e2f38360e21b82526004820152fd5b634e487b7160e01b600052602160045260246000fdfea2646970667358221220bdffc6f212a252bef242a98237ea7ebb8f0cc9fd02ae76d2e738ff81b617a83064736f6c63430008140033",
  "linkReferences": {},
  "deployedLinkReferences": {}
}