{
  "_format": "hh-sol-artifact-1",
  "contractName": "BurnVerifierV2",
  "sourceName": "contracts/BurnVerifierV2.sol",
  "abi": [
    {
      "inputs": [
        {
          "internalType": "address",
          "name": "_verifier",
          "type": "address"
        }
      ],
      "stateMutability": "nonpayable",
      "type": "constructor"
    },
    {
      "inputs": [],
      "name": "VerificationFailed",
      "type": "error"
    },
    {
      "inputs": [],
      "name": "plonkVerifier",
      "outputs": [
        {
          "internalType": "address",
          "name": "",
          "type": "address"
        }
      ],
      "stateMutability": "view",
      "type": "function"
    },
    {
      "inputs": [
        {
          "internalType": "bytes",
          "name": "proof",
          "type": "bytes"
        },
        {
          "internalType": "bytes32[6]",
          "name": "instances",
          "type": "bytes32[6]"
        }
      ],
      "name": "verify",
      "outputs": [],
      "stateMutability": "view",
      "type": "function"
    }
  ],
  "bytecode": "0x60a03461007057601f61037a38819003918201601f19168301916001600160401b038311848410176100755780849260209460405283398101031261007057516001600160a01b0381168103610070576080526040516102ee908161008c823960805181818160b501526101f20152f35b600080fd5b634e487b7160e01b600052604160045260246000fdfe6080604052600436101561001257600080fd5b6000803560e01c908163e261a9cb1461003a575063e4886e501461003557600080fd5b61009f565b3461009c5760e036600319011261009c5760043567ffffffffffffffff8082116100985736602383011215610098578160040135908111610098573660248284010111610098573660e41161009857602461009592016101b7565b80f35b8280fd5b80fd5b346100e45760003660031901126100e4576040517f00000000000000000000000000000000000000000000000000000000000000006001600160a01b03168152602090f35b600080fd5b634e487b7160e01b600052601160045260246000fd5b60068110156101115760051b60240190565b634e487b7160e01b600052603260045260246000fd5b60c001908160c01161013557565b6100e9565b634e487b7160e01b600052604160045260246000fd5b67ffffffffffffffff811161016c57601f01601f191660200190565b61013a565b9061017b82610150565b60405190601f1990601f018116820167ffffffffffffffff81118382101761016c576040528382526101ad8294610150565b0190602036910137565b9060005b6006811061022f5750600061021792826101dd6101d88495610127565b610171565b90602082019260c06024853760e083013751907f00000000000000000000000000000000000000000000000000000000000000005afa1590565b61021d57565b60405163439cc0cd60e01b8152600490fd5b61024161023b826100ff565b35610252565b6000198114610135576001016101bb565b7f30644e72e131a029b85045b68181585d2833e84879b9709143e1f593f0000001111561027b57565b60405162461bcd60e51b8152602060048201526015602482015274125b9d985b1a5908199a595b1908195b195b595b9d605a1b6044820152606490fdfea2646970667358221220a0bf01a2790404f890b4e849ccbb1a23e6ac34f7b8d52be8a052ae571d9e599764736f6c63430008140033",
  "linkReferences": {},
  "deployedLinkReferences": {}
}